{
  "contractName": "TheFunixCryptoSim",
  "abi": [
    {
      "inputs": [],
      "stateMutability": "nonpayable",
      "type": "constructor"
    },
    {
      "anonymous": false,
      "inputs": [
        {
          "indexed": true,
          "internalType": "address",
          "name": "owner",
          "type": "address"
        },
        {
          "indexed": true,
          "internalType": "address",
          "name": "approved",
          "type": "address"
        },
        {
          "indexed": true,
          "internalType": "uint256",
          "name": "tokenId",
          "type": "uint256"
        }
      ],
      "name": "Approval",
      "type": "event"
    },
    {
      "anonymous": false,
      "inputs": [
        {
          "indexed": true,
          "internalType": "address",
          "name": "owner",
          "type": "address"
        },
        {
          "indexed": true,
          "internalType": "address",
          "name": "operator",
          "type": "address"
        },
        {
          "indexed": false,
          "internalType": "bool",
          "name": "approved",
          "type": "bool"
        }
      ],
      "name": "ApprovalForAll",
      "type": "event"
    },
    {
      "anonymous": false,
      "inputs": [
        {
          "indexed": false,
          "internalType": "address",
          "name": "owner",
          "type": "address"
        },
        {
          "indexed": false,
          "internalType": "uint256",
          "name": "id",
          "type": "uint256"
        },
        {
          "indexed": false,
          "internalType": "uint256",
          "name": "matronId",
          "type": "uint256"
        },
        {
          "indexed": false,
          "internalType": "uint256",
          "name": "sireId",
          "type": "uint256"
        },
        {
          "components": [
            {
              "internalType": "uint8",
              "name": "body",
              "type": "uint8"
            },
            {
              "internalType": "uint8",
              "name": "eye",
              "type": "uint8"
            },
            {
              "internalType": "uint8",
              "name": "hairstyle",
              "type": "uint8"
            },
            {
              "internalType": "uint8",
              "name": "outfit",
              "type": "uint8"
            },
            {
              "internalType": "uint8",
              "name": "accessory",
              "type": "uint8"
            },
            {
              "internalType": "uint8",
              "name": "hiddenGenes",
              "type": "uint8"
            },
            {
              "internalType": "uint8",
              "name": "generation",
              "type": "uint8"
            }
          ],
          "indexed": false,
          "internalType": "struct TheFunixCryptoSim.SimAttributes",
          "name": "attributes",
          "type": "tuple"
        }
      ],
      "name": "Birth",
      "type": "event"
    },
    {
      "anonymous": false,
      "inputs": [
        {
          "indexed": true,
          "internalType": "address",
          "name": "previousOwner",
          "type": "address"
        },
        {
          "indexed": true,
          "internalType": "address",
          "name": "newOwner",
          "type": "address"
        }
      ],
      "name": "OwnershipTransferred",
      "type": "event"
    },
    {
      "anonymous": false,
      "inputs": [
        {
          "indexed": true,
          "internalType": "address",
          "name": "from",
          "type": "address"
        },
        {
          "indexed": true,
          "internalType": "address",
          "name": "to",
          "type": "address"
        },
        {
          "indexed": true,
          "internalType": "uint256",
          "name": "tokenId",
          "type": "uint256"
        }
      ],
      "name": "Transfer",
      "type": "event"
    },
    {
      "inputs": [
        {
          "internalType": "address",
          "name": "to",
          "type": "address"
        },
        {
          "internalType": "uint256",
          "name": "tokenId",
          "type": "uint256"
        }
      ],
      "name": "approve",
      "outputs": [],
      "stateMutability": "nonpayable",
      "type": "function"
    },
    {
      "inputs": [
        {
          "internalType": "address",
          "name": "owner",
          "type": "address"
        }
      ],
      "name": "balanceOf",
      "outputs": [
        {
          "internalType": "uint256",
          "name": "",
          "type": "uint256"
        }
      ],
      "stateMutability": "view",
      "type": "function",
      "constant": true
    },
    {
      "inputs": [
        {
          "internalType": "uint256",
          "name": "tokenId",
          "type": "uint256"
        }
      ],
      "name": "getApproved",
      "outputs": [
        {
          "internalType": "address",
          "name": "",
          "type": "address"
        }
      ],
      "stateMutability": "view",
      "type": "function",
      "constant": true
    },
    {
      "inputs": [
        {
          "internalType": "address",
          "name": "owner",
          "type": "address"
        },
        {
          "internalType": "address",
          "name": "operator",
          "type": "address"
        }
      ],
      "name": "isApprovedForAll",
      "outputs": [
        {
          "internalType": "bool",
          "name": "",
          "type": "bool"
        }
      ],
      "stateMutability": "view",
      "type": "function",
      "constant": true
    },
    {
      "inputs": [],
      "name": "name",
      "outputs": [
        {
          "internalType": "string",
          "name": "",
          "type": "string"
        }
      ],
      "stateMutability": "view",
      "type": "function",
      "constant": true
    },
    {
      "inputs": [],
      "name": "owner",
      "outputs": [
        {
          "internalType": "address",
          "name": "",
          "type": "address"
        }
      ],
      "stateMutability": "view",
      "type": "function",
      "constant": true
    },
    {
      "inputs": [
        {
          "internalType": "uint256",
          "name": "tokenId",
          "type": "uint256"
        }
      ],
      "name": "ownerOf",
      "outputs": [
        {
          "internalType": "address",
          "name": "",
          "type": "address"
        }
      ],
      "stateMutability": "view",
      "type": "function",
      "constant": true
    },
    {
      "inputs": [],
      "name": "renounceOwnership",
      "outputs": [],
      "stateMutability": "nonpayable",
      "type": "function"
    },
    {
      "inputs": [
        {
          "internalType": "address",
          "name": "from",
          "type": "address"
        },
        {
          "internalType": "address",
          "name": "to",
          "type": "address"
        },
        {
          "internalType": "uint256",
          "name": "tokenId",
          "type": "uint256"
        }
      ],
      "name": "safeTransferFrom",
      "outputs": [],
      "stateMutability": "nonpayable",
      "type": "function"
    },
    {
      "inputs": [
        {
          "internalType": "address",
          "name": "from",
          "type": "address"
        },
        {
          "internalType": "address",
          "name": "to",
          "type": "address"
        },
        {
          "internalType": "uint256",
          "name": "tokenId",
          "type": "uint256"
        },
        {
          "internalType": "bytes",
          "name": "data",
          "type": "bytes"
        }
      ],
      "name": "safeTransferFrom",
      "outputs": [],
      "stateMutability": "nonpayable",
      "type": "function"
    },
    {
      "inputs": [
        {
          "internalType": "address",
          "name": "operator",
          "type": "address"
        },
        {
          "internalType": "bool",
          "name": "approved",
          "type": "bool"
        }
      ],
      "name": "setApprovalForAll",
      "outputs": [],
      "stateMutability": "nonpayable",
      "type": "function"
    },
    {
      "inputs": [
        {
          "internalType": "uint256",
          "name": "",
          "type": "uint256"
        }
      ],
      "name": "sims",
      "outputs": [
        {
          "components": [
            {
              "internalType": "uint8",
              "name": "body",
              "type": "uint8"
            },
            {
              "internalType": "uint8",
              "name": "eye",
              "type": "uint8"
            },
            {
              "internalType": "uint8",
              "name": "hairstyle",
              "type": "uint8"
            },
            {
              "internalType": "uint8",
              "name": "outfit",
              "type": "uint8"
            },
            {
              "internalType": "uint8",
              "name": "accessory",
              "type": "uint8"
            },
            {
              "internalType": "uint8",
              "name": "hiddenGenes",
              "type": "uint8"
            },
            {
              "internalType": "uint8",
              "name": "generation",
              "type": "uint8"
            }
          ],
          "internalType": "struct TheFunixCryptoSim.SimAttributes",
          "name": "attributes",
          "type": "tuple"
        },
        {
          "internalType": "uint256",
          "name": "matronId",
          "type": "uint256"
        },
        {
          "internalType": "uint256",
          "name": "sireId",
          "type": "uint256"
        }
      ],
      "stateMutability": "view",
      "type": "function",
      "constant": true
    },
    {
      "inputs": [
        {
          "internalType": "bytes4",
          "name": "interfaceId",
          "type": "bytes4"
        }
      ],
      "name": "supportsInterface",
      "outputs": [
        {
          "internalType": "bool",
          "name": "",
          "type": "bool"
        }
      ],
      "stateMutability": "view",
      "type": "function",
      "constant": true
    },
    {
      "inputs": [],
      "name": "symbol",
      "outputs": [
        {
          "internalType": "string",
          "name": "",
          "type": "string"
        }
      ],
      "stateMutability": "view",
      "type": "function",
      "constant": true
    },
    {
      "inputs": [
        {
          "internalType": "uint256",
          "name": "tokenId",
          "type": "uint256"
        }
      ],
      "name": "tokenURI",
      "outputs": [
        {
          "internalType": "string",
          "name": "",
          "type": "string"
        }
      ],
      "stateMutability": "view",
      "type": "function",
      "constant": true
    },
    {
      "inputs": [
        {
          "internalType": "address",
          "name": "from",
          "type": "address"
        },
        {
          "internalType": "address",
          "name": "to",
          "type": "address"
        },
        {
          "internalType": "uint256",
          "name": "tokenId",
          "type": "uint256"
        }
      ],
      "name": "transferFrom",
      "outputs": [],
      "stateMutability": "nonpayable",
      "type": "function"
    },
    {
      "inputs": [
        {
          "internalType": "address",
          "name": "newOwner",
          "type": "address"
        }
      ],
      "name": "transferOwnership",
      "outputs": [],
      "stateMutability": "nonpayable",
      "type": "function"
    },
    {
      "inputs": [],
      "name": "nameOfToken",
      "outputs": [
        {
          "internalType": "string",
          "name": "",
          "type": "string"
        }
      ],
      "stateMutability": "pure",
      "type": "function",
      "constant": true
    },
    {
      "inputs": [],
      "name": "symbolOfToken",
      "outputs": [
        {
          "internalType": "string",
          "name": "",
          "type": "string"
        }
      ],
      "stateMutability": "pure",
      "type": "function",
      "constant": true
    },
    {
      "inputs": [],
      "name": "buySim",
      "outputs": [
        {
          "internalType": "uint256",
          "name": "",
          "type": "uint256"
        }
      ],
      "stateMutability": "payable",
      "type": "function",
      "payable": true
    },
    {
      "inputs": [
        {
          "internalType": "uint256",
          "name": "matronId",
          "type": "uint256"
        },
        {
          "internalType": "uint256",
          "name": "sireId",
          "type": "uint256"
        }
      ],
      "name": "breedSim",
      "outputs": [
        {
          "internalType": "uint256",
          "name": "",
          "type": "uint256"
        }
      ],
      "stateMutability": "payable",
      "type": "function",
      "payable": true
    },
    {
      "inputs": [
        {
          "internalType": "uint256",
          "name": "simId",
          "type": "uint256"
        }
      ],
      "name": "getSimDetails",
      "outputs": [
        {
          "internalType": "uint256",
          "name": "",
          "type": "uint256"
        },
        {
          "components": [
            {
              "internalType": "uint8",
              "name": "body",
              "type": "uint8"
            },
            {
              "internalType": "uint8",
              "name": "eye",
              "type": "uint8"
            },
            {
              "internalType": "uint8",
              "name": "hairstyle",
              "type": "uint8"
            },
            {
              "internalType": "uint8",
              "name": "outfit",
              "type": "uint8"
            },
            {
              "internalType": "uint8",
              "name": "accessory",
              "type": "uint8"
            },
            {
              "internalType": "uint8",
              "name": "hiddenGenes",
              "type": "uint8"
            },
            {
              "internalType": "uint8",
              "name": "generation",
              "type": "uint8"
            }
          ],
          "internalType": "struct TheFunixCryptoSim.SimAttributes",
          "name": "",
          "type": "tuple"
        },
        {
          "internalType": "uint256",
          "name": "",
          "type": "uint256"
        },
        {
          "internalType": "uint256",
          "name": "",
          "type": "uint256"
        }
      ],
      "stateMutability": "view",
      "type": "function",
      "constant": true
    },
    {
      "inputs": [],
      "name": "ownedSims",
      "outputs": [
        {
          "internalType": "uint256[]",
          "name": "",
          "type": "uint256[]"
        }
      ],
      "stateMutability": "view",
      "type": "function",
      "constant": true
    }
  ],
  "bytecode": "0x60806040523480156200001157600080fd5b50604051806020016040528060008152506040518060200160405280600081525081600090805190602001906200004a929190620008e3565b50806001908051906020019062000063929190620008e3565b505050620000866200007a6200009c60201b60201c565b620000a460201b60201c565b620000966200016a60201b60201c565b62000bbd565b600033905090565b6000600660009054906101000a900473ffffffffffffffffffffffffffffffffffffffff16905081600660006101000a81548173ffffffffffffffffffffffffffffffffffffffff021916908373ffffffffffffffffffffffffffffffffffffffff1602179055508173ffffffffffffffffffffffffffffffffffffffff168173ffffffffffffffffffffffffffffffffffffffff167f8be0079c531659141344cd1fd0a4f28419497f9722a3daafe3b4186f6b6457e060405160405180910390a35050565b60006040518060e00160405280600060ff168152602001600060ff168152602001600060ff168152602001600060ff168152602001600060ff168152602001600060ff168152602001600060ff16815250905060006040518060e00160405280600360ff168152602001600760ff168152602001607f60ff168152602001601f60ff168152602001601f60ff168152602001600060ff168152602001600060ff16815250905060076040518060600160405280848152602001600081526020016000815250908060018154018082558091505060019003906000526020600020906003020160009091909190915060008201518160000160008201518160000160006101000a81548160ff021916908360ff16021790555060208201518160000160016101000a81548160ff021916908360ff16021790555060408201518160000160026101000a81548160ff021916908360ff16021790555060608201518160000160036101000a81548160ff021916908360ff16021790555060808201518160000160046101000a81548160ff021916908360ff16021790555060a08201518160000160056101000a81548160ff021916908360ff16021790555060c08201518160000160066101000a81548160ff021916908360ff16021790555050506020820151816001015560408201518160020155505062000378336000620004e460201b620011381760201c565b60076040518060600160405280838152602001600081526020016000815250908060018154018082558091505060019003906000526020600020906003020160009091909190915060008201518160000160008201518160000160006101000a81548160ff021916908360ff16021790555060208201518160000160016101000a81548160ff021916908360ff16021790555060408201518160000160026101000a81548160ff021916908360ff16021790555060608201518160000160036101000a81548160ff021916908360ff16021790555060808201518160000160046101000a81548160ff021916908360ff16021790555060a08201518160000160056101000a81548160ff021916908360ff16021790555060c08201518160000160066101000a81548160ff021916908360ff160217905550505060208201518160010155604082015181600201555050620004e0336001620004e460201b620011381760201c565b5050565b600073ffffffffffffffffffffffffffffffffffffffff168273ffffffffffffffffffffffffffffffffffffffff160362000556576040517f08c379a00000000000000000000000000000000000000000000000000000000081526004016200054d90620009f4565b60405180910390fd5b62000567816200072a60201b60201c565b15620005aa576040517f08c379a0000000000000000000000000000000000000000000000000000000008152600401620005a19062000a66565b60405180910390fd5b620005c06000838360016200077360201b60201c565b620005d1816200072a60201b60201c565b1562000614576040517f08c379a00000000000000000000000000000000000000000000000000000000081526004016200060b9062000a66565b60405180910390fd5b6001600360008473ffffffffffffffffffffffffffffffffffffffff1673ffffffffffffffffffffffffffffffffffffffff16815260200190815260200160002060008282540192505081905550816002600083815260200190815260200160002060006101000a81548173ffffffffffffffffffffffffffffffffffffffff021916908373ffffffffffffffffffffffffffffffffffffffff160217905550808273ffffffffffffffffffffffffffffffffffffffff16600073ffffffffffffffffffffffffffffffffffffffff167fddf252ad1be2c89b69c2b068fc378daa952ba7f163c4a11628f55a4df523b3ef60405160405180910390a462000726600083836001620008a060201b60201c565b5050565b60008073ffffffffffffffffffffffffffffffffffffffff166200075483620008a660201b60201c565b73ffffffffffffffffffffffffffffffffffffffff1614159050919050565b60018111156200089a57600073ffffffffffffffffffffffffffffffffffffffff168473ffffffffffffffffffffffffffffffffffffffff16146200080b5780600360008673ffffffffffffffffffffffffffffffffffffffff1673ffffffffffffffffffffffffffffffffffffffff168152602001908152602001600020600082825462000803919062000ac1565b925050819055505b600073ffffffffffffffffffffffffffffffffffffffff168373ffffffffffffffffffffffffffffffffffffffff1614620008995780600360008573ffffffffffffffffffffffffffffffffffffffff1673ffffffffffffffffffffffffffffffffffffffff168152602001908152602001600020600082825462000891919062000afc565b925050819055505b5b50505050565b50505050565b60006002600083815260200190815260200160002060009054906101000a900473ffffffffffffffffffffffffffffffffffffffff169050919050565b828054620008f19062000b88565b90600052602060002090601f01602090048101928262000915576000855562000961565b82601f106200093057805160ff191683800117855562000961565b8280016001018555821562000961579182015b828111156200096057825182559160200191906001019062000943565b5b50905062000970919062000974565b5090565b5b808211156200098f57600081600090555060010162000975565b5090565b600082825260208201905092915050565b7f4552433732313a206d696e7420746f20746865207a65726f2061646472657373600082015250565b6000620009dc60208362000993565b9150620009e982620009a4565b602082019050919050565b6000602082019050818103600083015262000a0f81620009cd565b9050919050565b7f4552433732313a20746f6b656e20616c7265616479206d696e74656400000000600082015250565b600062000a4e601c8362000993565b915062000a5b8262000a16565b602082019050919050565b6000602082019050818103600083015262000a818162000a3f565b9050919050565b6000819050919050565b7f4e487b7100000000000000000000000000000000000000000000000000000000600052601160045260246000fd5b600062000ace8262000a88565b915062000adb8362000a88565b92508282101562000af15762000af062000a92565b5b828203905092915050565b600062000b098262000a88565b915062000b168362000a88565b9250827fffffffffffffffffffffffffffffffffffffffffffffffffffffffffffffffff0382111562000b4e5762000b4d62000a92565b5b828201905092915050565b7f4e487b7100000000000000000000000000000000000000000000000000000000600052602260045260246000fd5b6000600282049050600182168062000ba157607f821691505b60208210810362000bb75762000bb662000b59565b5b50919050565b613db88062000bcd6000396000f3fe6080604052600436106101405760003560e01c80638da5cb5b116100b6578063c87b56dd1161006f578063c87b56dd14610466578063cab87ef1146104a3578063d5617139146104ce578063e985e9c5146104fe578063f2fde38b1461053b578063f498d2561461056457610140565b80638da5cb5b14610353578063938e5e8e1461037e57806395d89b41146103a95780639c055ed8146103d4578063a22cb46514610414578063b88d4fde1461043d57610140565b80631e4e704b116101085780631e4e704b1461023157806323b872dd1461027057806342842e0e146102995780636352211e146102c257806370a08231146102ff578063715018a61461033c57610140565b806301ffc9a71461014557806306fdde0314610182578063081812fc146101ad578063095ea7b3146101ea578063102e1c7114610213575b600080fd5b34801561015157600080fd5b5061016c60048036038101906101679190612b1e565b61058f565b6040516101799190612b66565b60405180910390f35b34801561018e57600080fd5b50610197610671565b6040516101a49190612c1a565b60405180910390f35b3480156101b957600080fd5b506101d460048036038101906101cf9190612c72565b610703565b6040516101e19190612ce0565b60405180910390f35b3480156101f657600080fd5b50610211600480360381019061020c9190612d27565b610749565b005b61021b610860565b6040516102289190612d76565b60405180910390f35b34801561023d57600080fd5b5061025860048036038101906102539190612c72565b610894565b60405161026793929190612e3b565b60405180910390f35b34801561027c57600080fd5b5061029760048036038101906102929190612e74565b6109a3565b005b3480156102a557600080fd5b506102c060048036038101906102bb9190612e74565b610a03565b005b3480156102ce57600080fd5b506102e960048036038101906102e49190612c72565b610a23565b6040516102f69190612ce0565b60405180910390f35b34801561030b57600080fd5b5061032660048036038101906103219190612ec7565b610aa9565b6040516103339190612d76565b60405180910390f35b34801561034857600080fd5b50610351610b60565b005b34801561035f57600080fd5b50610368610b74565b6040516103759190612ce0565b60405180910390f35b34801561038a57600080fd5b50610393610b9e565b6040516103a09190612c1a565b60405180910390f35b3480156103b557600080fd5b506103be610bdb565b6040516103cb9190612c1a565b60405180910390f35b3480156103e057600080fd5b506103fb60048036038101906103f69190612c72565b610c6d565b60405161040b9493929190612ef4565b60405180910390f35b34801561042057600080fd5b5061043b60048036038101906104369190612f68565b610d98565b005b34801561044957600080fd5b50610464600480360381019061045f91906130dd565b610dae565b005b34801561047257600080fd5b5061048d60048036038101906104889190612c72565b610e10565b60405161049a9190612c1a565b60405180910390f35b3480156104af57600080fd5b506104b8610e78565b6040516104c59190612c1a565b60405180910390f35b6104e860048036038101906104e39190613160565b610eb5565b6040516104f59190612d76565b60405180910390f35b34801561050a57600080fd5b50610525600480360381019061052091906131a0565b610eca565b6040516105329190612b66565b60405180910390f35b34801561054757600080fd5b50610562600480360381019061055d9190612ec7565b610f5e565b005b34801561057057600080fd5b50610579610fe1565b604051610586919061329e565b60405180910390f35b60007f80ac58cd000000000000000000000000000000000000000000000000000000007bffffffffffffffffffffffffffffffffffffffffffffffffffffffff1916827bffffffffffffffffffffffffffffffffffffffffffffffffffffffff1916148061065a57507f5b5e139f000000000000000000000000000000000000000000000000000000007bffffffffffffffffffffffffffffffffffffffffffffffffffffffff1916827bffffffffffffffffffffffffffffffffffffffffffffffffffffffff1916145b8061066a575061066982611355565b5b9050919050565b606060008054610680906132ef565b80601f01602080910402602001604051908101604052809291908181526020018280546106ac906132ef565b80156106f95780601f106106ce576101008083540402835291602001916106f9565b820191906000526020600020905b8154815290600101906020018083116106dc57829003601f168201915b5050505050905090565b600061070e826113bf565b6004600083815260200190815260200160002060009054906101000a900473ffffffffffffffffffffffffffffffffffffffff169050919050565b600061075482610a23565b90508073ffffffffffffffffffffffffffffffffffffffff168373ffffffffffffffffffffffffffffffffffffffff16036107c4576040517f08c379a00000000000000000000000000000000000000000000000000000000081526004016107bb90613392565b60405180910390fd5b8073ffffffffffffffffffffffffffffffffffffffff166107e361140a565b73ffffffffffffffffffffffffffffffffffffffff16148061081257506108118161080c61140a565b610eca565b5b610851576040517f08c379a000000000000000000000000000000000000000000000000000000000815260040161084890613424565b60405180910390fd5b61085b8383611412565b505050565b600061088f6000600780549050600160078054905061087f9190613473565b61088991906134d6565b336114cb565b905090565b600781815481106108a457600080fd5b9060005260206000209060030201600091509050806000016040518060e00160405290816000820160009054906101000a900460ff1660ff1660ff1681526020016000820160019054906101000a900460ff1660ff1660ff1681526020016000820160029054906101000a900460ff1660ff1660ff1681526020016000820160039054906101000a900460ff1660ff1660ff1681526020016000820160049054906101000a900460ff1660ff1660ff1681526020016000820160059054906101000a900460ff1660ff1660ff1681526020016000820160069054906101000a900460ff1660ff1660ff1681525050908060010154908060020154905083565b6109b46109ae61140a565b826116de565b6109f3576040517f08c379a00000000000000000000000000000000000000000000000000000000081526004016109ea90613579565b60405180910390fd5b6109fe838383611773565b505050565b610a1e83838360405180602001604052806000815250610dae565b505050565b600080610a2f83611a6c565b9050600073ffffffffffffffffffffffffffffffffffffffff168173ffffffffffffffffffffffffffffffffffffffff1603610aa0576040517f08c379a0000000000000000000000000000000000000000000000000000000008152600401610a97906135e5565b60405180910390fd5b80915050919050565b60008073ffffffffffffffffffffffffffffffffffffffff168273ffffffffffffffffffffffffffffffffffffffff1603610b19576040517f08c379a0000000000000000000000000000000000000000000000000000000008152600401610b1090613677565b60405180910390fd5b600360008373ffffffffffffffffffffffffffffffffffffffff1673ffffffffffffffffffffffffffffffffffffffff168152602001908152602001600020549050919050565b610b68611aa9565b610b726000611b27565b565b6000600660009054906101000a900473ffffffffffffffffffffffffffffffffffffffff16905090565b60606040518060400160405280600381526020017f4643530000000000000000000000000000000000000000000000000000000000815250905090565b606060018054610bea906132ef565b80601f0160208091040260200160405190810160405280929190818152602001828054610c16906132ef565b8015610c635780601f10610c3857610100808354040283529160200191610c63565b820191906000526020600020905b815481529060010190602001808311610c4657829003601f168201915b5050505050905090565b6000610c77612a60565b600080600060078681548110610c9057610c8f613697565b5b90600052602060002090600302019050858160000182600101548360020154826040518060e00160405290816000820160009054906101000a900460ff1660ff1660ff1681526020016000820160019054906101000a900460ff1660ff1660ff1681526020016000820160029054906101000a900460ff1660ff1660ff1681526020016000820160039054906101000a900460ff1660ff1660ff1681526020016000820160049054906101000a900460ff1660ff1660ff1681526020016000820160059054906101000a900460ff1660ff1660ff1681526020016000820160069054906101000a900460ff1660ff1660ff168152505092509450945094509450509193509193565b610daa610da361140a565b8383611bed565b5050565b610dbf610db961140a565b836116de565b610dfe576040517f08c379a0000000000000000000000000000000000000000000000000000000008152600401610df590613579565b60405180910390fd5b610e0a84848484611d59565b50505050565b6060610e1b826113bf565b6000610e25611db5565b90506000815111610e455760405180602001604052806000815250610e70565b80610e4f84611dcc565b604051602001610e60929190613702565b6040516020818303038152906040525b915050919050565b60606040518060400160405280601281526020017f54686546756e697843727970746f53696d730000000000000000000000000000815250905090565b6000610ec28383336114cb565b905092915050565b6000600560008473ffffffffffffffffffffffffffffffffffffffff1673ffffffffffffffffffffffffffffffffffffffff16815260200190815260200160002060008373ffffffffffffffffffffffffffffffffffffffff1673ffffffffffffffffffffffffffffffffffffffff16815260200190815260200160002060009054906101000a900460ff16905092915050565b610f66611aa9565b600073ffffffffffffffffffffffffffffffffffffffff168173ffffffffffffffffffffffffffffffffffffffff1603610fd5576040517f08c379a0000000000000000000000000000000000000000000000000000000008152600401610fcc90613798565b60405180910390fd5b610fde81611b27565b50565b60606000610fee33610aa9565b90506000810361104a57600067ffffffffffffffff81111561101357611012612fb2565b5b6040519080825280602002602001820160405280156110415781602001602082028036833780820191505090505b50915050611135565b60008167ffffffffffffffff81111561106657611065612fb2565b5b6040519080825280602002602001820160405280156110945781602001602082028036833780820191505090505b509050600060078054905090506000805b8281101561112c573373ffffffffffffffffffffffffffffffffffffffff166110cd82610a23565b73ffffffffffffffffffffffffffffffffffffffff160361111857808483815181106110fc576110fb613697565b5b60200260200101818152505060018261111591906137b8565b91505b60018161112591906137b8565b90506110a5565b83955050505050505b90565b600073ffffffffffffffffffffffffffffffffffffffff168273ffffffffffffffffffffffffffffffffffffffff16036111a7576040517f08c379a000000000000000000000000000000000000000000000000000000000815260040161119e9061385a565b60405180910390fd5b6111b081611e9a565b156111f0576040517f08c379a00000000000000000000000000000000000000000000000000000000081526004016111e7906138c6565b60405180910390fd5b6111fe600083836001611edb565b61120781611e9a565b15611247576040517f08c379a000000000000000000000000000000000000000000000000000000000815260040161123e906138c6565b60405180910390fd5b6001600360008473ffffffffffffffffffffffffffffffffffffffff1673ffffffffffffffffffffffffffffffffffffffff16815260200190815260200160002060008282540192505081905550816002600083815260200190815260200160002060006101000a81548173ffffffffffffffffffffffffffffffffffffffff021916908373ffffffffffffffffffffffffffffffffffffffff160217905550808273ffffffffffffffffffffffffffffffffffffffff16600073ffffffffffffffffffffffffffffffffffffffff167fddf252ad1be2c89b69c2b068fc378daa952ba7f163c4a11628f55a4df523b3ef60405160405180910390a4611351600083836001612001565b5050565b60007f01ffc9a7000000000000000000000000000000000000000000000000000000007bffffffffffffffffffffffffffffffffffffffffffffffffffffffff1916827bffffffffffffffffffffffffffffffffffffffffffffffffffffffff1916149050919050565b6113c881611e9a565b611407576040517f08c379a00000000000000000000000000000000000000000000000000000000081526004016113fe906135e5565b60405180910390fd5b50565b600033905090565b816004600083815260200190815260200160002060006101000a81548173ffffffffffffffffffffffffffffffffffffffff021916908373ffffffffffffffffffffffffffffffffffffffff160217905550808273ffffffffffffffffffffffffffffffffffffffff1661148583610a23565b73ffffffffffffffffffffffffffffffffffffffff167f8c5be1e5ebec7d5bd14f71427d1e84f3dd0314c0f7b2291e5b200ac8c7c3b92560405160405180910390a45050565b60008073ffffffffffffffffffffffffffffffffffffffff168273ffffffffffffffffffffffffffffffffffffffff160361150557600080fd5b60006115118585612007565b905060006040518060600160405280838152602001878152602001868152509050600781908060018154018082558091505060019003906000526020600020906003020160009091909190915060008201518160000160008201518160000160006101000a81548160ff021916908360ff16021790555060208201518160000160016101000a81548160ff021916908360ff16021790555060408201518160000160026101000a81548160ff021916908360ff16021790555060608201518160000160036101000a81548160ff021916908360ff16021790555060808201518160000160046101000a81548160ff021916908360ff16021790555060a08201518160000160056101000a81548160ff021916908360ff16021790555060c08201518160000160066101000a81548160ff021916908360ff1602179055505050602082015181600101556040820151816002015550506000600160078054905061167a9190613473565b90506116868582611138565b7f7b7a487757a29444e1a3c0410ec6c48b4282109a38b177356874747bbb4a5c8185828460200151856040015186600001516040516116c99594939291906138e6565b60405180910390a18093505050509392505050565b6000806116ea83610a23565b90508073ffffffffffffffffffffffffffffffffffffffff168473ffffffffffffffffffffffffffffffffffffffff16148061172c575061172b8185610eca565b5b8061176a57508373ffffffffffffffffffffffffffffffffffffffff1661175284610703565b73ffffffffffffffffffffffffffffffffffffffff16145b91505092915050565b8273ffffffffffffffffffffffffffffffffffffffff1661179382610a23565b73ffffffffffffffffffffffffffffffffffffffff16146117e9576040517f08c379a00000000000000000000000000000000000000000000000000000000081526004016117e0906139ac565b60405180910390fd5b600073ffffffffffffffffffffffffffffffffffffffff168273ffffffffffffffffffffffffffffffffffffffff1603611858576040517f08c379a000000000000000000000000000000000000000000000000000000000815260040161184f90613a3e565b60405180910390fd5b6118658383836001611edb565b8273ffffffffffffffffffffffffffffffffffffffff1661188582610a23565b73ffffffffffffffffffffffffffffffffffffffff16146118db576040517f08c379a00000000000000000000000000000000000000000000000000000000081526004016118d2906139ac565b60405180910390fd5b6004600082815260200190815260200160002060006101000a81549073ffffffffffffffffffffffffffffffffffffffff02191690556001600360008573ffffffffffffffffffffffffffffffffffffffff1673ffffffffffffffffffffffffffffffffffffffff168152602001908152602001600020600082825403925050819055506001600360008473ffffffffffffffffffffffffffffffffffffffff1673ffffffffffffffffffffffffffffffffffffffff16815260200190815260200160002060008282540192505081905550816002600083815260200190815260200160002060006101000a81548173ffffffffffffffffffffffffffffffffffffffff021916908373ffffffffffffffffffffffffffffffffffffffff160217905550808273ffffffffffffffffffffffffffffffffffffffff168473ffffffffffffffffffffffffffffffffffffffff167fddf252ad1be2c89b69c2b068fc378daa952ba7f163c4a11628f55a4df523b3ef60405160405180910390a4611a678383836001612001565b505050565b60006002600083815260200190815260200160002060009054906101000a900473ffffffffffffffffffffffffffffffffffffffff169050919050565b611ab161140a565b73ffffffffffffffffffffffffffffffffffffffff16611acf610b74565b73ffffffffffffffffffffffffffffffffffffffff1614611b25576040517f08c379a0000000000000000000000000000000000000000000000000000000008152600401611b1c90613aaa565b60405180910390fd5b565b6000600660009054906101000a900473ffffffffffffffffffffffffffffffffffffffff16905081600660006101000a81548173ffffffffffffffffffffffffffffffffffffffff021916908373ffffffffffffffffffffffffffffffffffffffff1602179055508173ffffffffffffffffffffffffffffffffffffffff168173ffffffffffffffffffffffffffffffffffffffff167f8be0079c531659141344cd1fd0a4f28419497f9722a3daafe3b4186f6b6457e060405160405180910390a35050565b8173ffffffffffffffffffffffffffffffffffffffff168373ffffffffffffffffffffffffffffffffffffffff1603611c5b576040517f08c379a0000000000000000000000000000000000000000000000000000000008152600401611c5290613b16565b60405180910390fd5b80600560008573ffffffffffffffffffffffffffffffffffffffff1673ffffffffffffffffffffffffffffffffffffffff16815260200190815260200160002060008473ffffffffffffffffffffffffffffffffffffffff1673ffffffffffffffffffffffffffffffffffffffff16815260200190815260200160002060006101000a81548160ff0219169083151502179055508173ffffffffffffffffffffffffffffffffffffffff168373ffffffffffffffffffffffffffffffffffffffff167f17307eab39ab6107e8899845ad3d59bd9653f200f220920489ca2b5937696c3183604051611d4c9190612b66565b60405180910390a3505050565b611d64848484611773565b611d7084848484612763565b611daf576040517f08c379a0000000000000000000000000000000000000000000000000000000008152600401611da690613ba8565b60405180910390fd5b50505050565b606060405180602001604052806000815250905090565b606060006001611ddb846128ea565b01905060008167ffffffffffffffff811115611dfa57611df9612fb2565b5b6040519080825280601f01601f191660200182016040528015611e2c5781602001600182028036833780820191505090505b509050600082602001820190505b600115611e8f578080600190039150507f3031323334353637383961626364656600000000000000000000000000000000600a86061a8153600a8581611e8357611e826134a7565b5b04945060008503611e3a575b819350505050919050565b60008073ffffffffffffffffffffffffffffffffffffffff16611ebc83611a6c565b73ffffffffffffffffffffffffffffffffffffffff1614159050919050565b6001811115611ffb57600073ffffffffffffffffffffffffffffffffffffffff168473ffffffffffffffffffffffffffffffffffffffff1614611f6f5780600360008673ffffffffffffffffffffffffffffffffffffffff1673ffffffffffffffffffffffffffffffffffffffff1681526020019081526020016000206000828254611f679190613473565b925050819055505b600073ffffffffffffffffffffffffffffffffffffffff168373ffffffffffffffffffffffffffffffffffffffff1614611ffa5780600360008573ffffffffffffffffffffffffffffffffffffffff1673ffffffffffffffffffffffffffffffffffffffff1681526020019081526020016000206000828254611ff291906137b8565b925050819055505b5b50505050565b50505050565b61200f612a60565b60006007848154811061202557612024613697565b5b90600052602060002090600302016000016040518060e00160405290816000820160009054906101000a900460ff1660ff1660ff1681526020016000820160019054906101000a900460ff1660ff1660ff1681526020016000820160029054906101000a900460ff1660ff1660ff1681526020016000820160039054906101000a900460ff1660ff1660ff1681526020016000820160049054906101000a900460ff1660ff1660ff1681526020016000820160059054906101000a900460ff1660ff1660ff1681526020016000820160069054906101000a900460ff1660ff1660ff1681525050905060006007848154811061212457612123613697565b5b90600052602060002090600302016000016040518060e00160405290816000820160009054906101000a900460ff1660ff1660ff1681526020016000820160019054906101000a900460ff1660ff1660ff1681526020016000820160029054906101000a900460ff1660ff1660ff1681526020016000820160039054906101000a900460ff1660ff1660ff1681526020016000820160049054906101000a900460ff1660ff1660ff1681526020016000820160059054906101000a900460ff1660ff1660ff1681526020016000820160069054906101000a900460ff1660ff1660ff1681525050905060008260a0015190508160a0015160ff168360a0015160ff160361225e57600460038360a001518560a001516122439190613bc8565b61224d9190613c03565b6122579190613c3a565b9050612279565b8160a0015160ff168160ff161015612278578160a0015190505b5b60006040518060e00160405280600060ff168152602001600060ff168152602001600060ff168152602001600060ff168152602001600060ff168152602001600060ff168152602001600060ff16815250905060018460c001516122dd9190613c03565b8160c0019060ff16908160ff16815250508360c0015160ff168360c0015160ff1611156123275760018360c001516123159190613c03565b8160c0019060ff16908160ff16815250505b60008260ff160361240e57600460038460000151866000015161234a9190613c03565b6123549190613c03565b61235e9190613c3a565b816000019060ff16908160ff16815250508260200151816020019060ff16908160ff16815250508360400151816040019060ff16908160ff168152505060206001846060015186606001516123b39190613c03565b6123bd9190613c03565b6123c79190613c3a565b816060019060ff16908160ff16815250506020836080015185608001516123ee9190613c03565b6123f89190613c3a565b816080019060ff16908160ff1681525050612744565b60018260ff160361251b5760046003846000015186600001516124319190613c03565b61243b9190613c03565b6124459190613c3a565b816000019060ff16908160ff16815250508360200151816020019060ff16908160ff1681525050608080856040015185604001516124839190613c6b565b61248d9190613c03565b6124979190613c3a565b816040019060ff16908160ff168152505060206001846060015186606001516124c09190613c03565b6124ca9190613c03565b6124d49190613c3a565b816060019060ff16908160ff16815250506020836080015185608001516124fb9190613c03565b6125059190613c3a565b816080019060ff16908160ff1681525050612743565b60028260ff160361264357600460038460000151866000015161253e9190613c03565b6125489190613c03565b6125529190613c3a565b816000019060ff16908160ff16815250506008836020015185602001516125799190613c03565b6125839190613c3a565b816020019060ff16908160ff1681525050608080856040015185604001516125ab9190613c6b565b6125b59190613c03565b6125bf9190613c3a565b816040019060ff16908160ff16815250506020836060015185606001516125e69190613c03565b6125f09190613c3a565b816060019060ff16908160ff16815250506020601f846080015186608001516126199190613c03565b6126239190613c03565b61262d9190613c3a565b816080019060ff16908160ff1681525050612742565b60038260ff16036127415760046003846000015186600001516126669190613c03565b6126709190613c03565b61267a9190613c3a565b816000019060ff16908160ff16815250506008836020015185602001516126a19190613c03565b6126ab9190613c3a565b816020019060ff16908160ff16815250508260400151816040019060ff16908160ff16815250506020836060015185606001516126e89190613c03565b6126f29190613c3a565b816060019060ff16908160ff16815250506020601f8460800151866080015161271b9190613c03565b6127259190613c03565b61272f9190613c3a565b816080019060ff16908160ff16815250505b5b5b5b818160a0019060ff16908160ff16815250508094505050505092915050565b60006127848473ffffffffffffffffffffffffffffffffffffffff16612a3d565b156128dd578373ffffffffffffffffffffffffffffffffffffffff1663150b7a026127ad61140a565b8786866040518563ffffffff1660e01b81526004016127cf9493929190613cf4565b6020604051808303816000875af192505050801561280b57506040513d601f19601f820116820180604052508101906128089190613d55565b60015b61288d573d806000811461283b576040519150601f19603f3d011682016040523d82523d6000602084013e612840565b606091505b506000815103612885576040517f08c379a000000000000000000000000000000000000000000000000000000000815260040161287c90613ba8565b60405180910390fd5b805181602001fd5b63150b7a0260e01b7bffffffffffffffffffffffffffffffffffffffffffffffffffffffff1916817bffffffffffffffffffffffffffffffffffffffffffffffffffffffff1916149150506128e2565b600190505b949350505050565b600080600090507a184f03e93ff9f4daa797ed6e38ed64bf6a1f0100000000000000008310612948577a184f03e93ff9f4daa797ed6e38ed64bf6a1f010000000000000000838161293e5761293d6134a7565b5b0492506040810190505b6d04ee2d6d415b85acef81000000008310612985576d04ee2d6d415b85acef8100000000838161297b5761297a6134a7565b5b0492506020810190505b662386f26fc1000083106129b457662386f26fc1000083816129aa576129a96134a7565b5b0492506010810190505b6305f5e10083106129dd576305f5e10083816129d3576129d26134a7565b5b0492506008810190505b6127108310612a025761271083816129f8576129f76134a7565b5b0492506004810190505b60648310612a255760648381612a1b57612a1a6134a7565b5b0492506002810190505b600a8310612a34576001810190505b80915050919050565b6000808273ffffffffffffffffffffffffffffffffffffffff163b119050919050565b6040518060e00160405280600060ff168152602001600060ff168152602001600060ff168152602001600060ff168152602001600060ff168152602001600060ff168152602001600060ff1681525090565b6000604051905090565b600080fd5b600080fd5b60007fffffffff0000000000000000000000000000000000000000000000000000000082169050919050565b612afb81612ac6565b8114612b0657600080fd5b50565b600081359050612b1881612af2565b92915050565b600060208284031215612b3457612b33612abc565b5b6000612b4284828501612b09565b91505092915050565b60008115159050919050565b612b6081612b4b565b82525050565b6000602082019050612b7b6000830184612b57565b92915050565b600081519050919050565b600082825260208201905092915050565b60005b83811015612bbb578082015181840152602081019050612ba0565b83811115612bca576000848401525b50505050565b6000601f19601f8301169050919050565b6000612bec82612b81565b612bf68185612b8c565b9350612c06818560208601612b9d565b612c0f81612bd0565b840191505092915050565b60006020820190508181036000830152612c348184612be1565b905092915050565b6000819050919050565b612c4f81612c3c565b8114612c5a57600080fd5b50565b600081359050612c6c81612c46565b92915050565b600060208284031215612c8857612c87612abc565b5b6000612c9684828501612c5d565b91505092915050565b600073ffffffffffffffffffffffffffffffffffffffff82169050919050565b6000612cca82612c9f565b9050919050565b612cda81612cbf565b82525050565b6000602082019050612cf56000830184612cd1565b92915050565b612d0481612cbf565b8114612d0f57600080fd5b50565b600081359050612d2181612cfb565b92915050565b60008060408385031215612d3e57612d3d612abc565b5b6000612d4c85828601612d12565b9250506020612d5d85828601612c5d565b9150509250929050565b612d7081612c3c565b82525050565b6000602082019050612d8b6000830184612d67565b92915050565b600060ff82169050919050565b612da781612d91565b82525050565b60e082016000820151612dc36000850182612d9e565b506020820151612dd66020850182612d9e565b506040820151612de96040850182612d9e565b506060820151612dfc6060850182612d9e565b506080820151612e0f6080850182612d9e565b5060a0820151612e2260a0850182612d9e565b5060c0820151612e3560c0850182612d9e565b50505050565b600061012082019050612e516000830186612dad565b612e5e60e0830185612d67565b612e6c610100830184612d67565b949350505050565b600080600060608486031215612e8d57612e8c612abc565b5b6000612e9b86828701612d12565b9350506020612eac86828701612d12565b9250506040612ebd86828701612c5d565b9150509250925092565b600060208284031215612edd57612edc612abc565b5b6000612eeb84828501612d12565b91505092915050565b600061014082019050612f0a6000830187612d67565b612f176020830186612dad565b612f25610100830185612d67565b612f33610120830184612d67565b95945050505050565b612f4581612b4b565b8114612f5057600080fd5b50565b600081359050612f6281612f3c565b92915050565b60008060408385031215612f7f57612f7e612abc565b5b6000612f8d85828601612d12565b9250506020612f9e85828601612f53565b9150509250929050565b600080fd5b600080fd5b7f4e487b7100000000000000000000000000000000000000000000000000000000600052604160045260246000fd5b612fea82612bd0565b810181811067ffffffffffffffff8211171561300957613008612fb2565b5b80604052505050565b600061301c612ab2565b90506130288282612fe1565b919050565b600067ffffffffffffffff82111561304857613047612fb2565b5b61305182612bd0565b9050602081019050919050565b82818337600083830152505050565b600061308061307b8461302d565b613012565b90508281526020810184848401111561309c5761309b612fad565b5b6130a784828561305e565b509392505050565b600082601f8301126130c4576130c3612fa8565b5b81356130d484826020860161306d565b91505092915050565b600080600080608085870312156130f7576130f6612abc565b5b600061310587828801612d12565b945050602061311687828801612d12565b935050604061312787828801612c5d565b925050606085013567ffffffffffffffff81111561314857613147612ac1565b5b613154878288016130af565b91505092959194509250565b6000806040838503121561317757613176612abc565b5b600061318585828601612c5d565b925050602061319685828601612c5d565b9150509250929050565b600080604083850312156131b7576131b6612abc565b5b60006131c585828601612d12565b92505060206131d685828601612d12565b9150509250929050565b600081519050919050565b600082825260208201905092915050565b6000819050602082019050919050565b61321581612c3c565b82525050565b6000613227838361320c565b60208301905092915050565b6000602082019050919050565b600061324b826131e0565b61325581856131eb565b9350613260836131fc565b8060005b83811015613291578151613278888261321b565b975061328383613233565b925050600181019050613264565b5085935050505092915050565b600060208201905081810360008301526132b88184613240565b905092915050565b7f4e487b7100000000000000000000000000000000000000000000000000000000600052602260045260246000fd5b6000600282049050600182168061330757607f821691505b60208210810361331a576133196132c0565b5b50919050565b7f4552433732313a20617070726f76616c20746f2063757272656e74206f776e6560008201527f7200000000000000000000000000000000000000000000000000000000000000602082015250565b600061337c602183612b8c565b915061338782613320565b604082019050919050565b600060208201905081810360008301526133ab8161336f565b9050919050565b7f4552433732313a20617070726f76652063616c6c6572206973206e6f7420746f60008201527f6b656e206f776e6572206f7220617070726f76656420666f7220616c6c000000602082015250565b600061340e603d83612b8c565b9150613419826133b2565b604082019050919050565b6000602082019050818103600083015261343d81613401565b9050919050565b7f4e487b7100000000000000000000000000000000000000000000000000000000600052601160045260246000fd5b600061347e82612c3c565b915061348983612c3c565b92508282101561349c5761349b613444565b5b828203905092915050565b7f4e487b7100000000000000000000000000000000000000000000000000000000600052601260045260246000fd5b60006134e182612c3c565b91506134ec83612c3c565b9250826134fc576134fb6134a7565b5b828206905092915050565b7f4552433732313a2063616c6c6572206973206e6f7420746f6b656e206f776e6560008201527f72206f7220617070726f76656400000000000000000000000000000000000000602082015250565b6000613563602d83612b8c565b915061356e82613507565b604082019050919050565b6000602082019050818103600083015261359281613556565b9050919050565b7f4552433732313a20696e76616c696420746f6b656e2049440000000000000000600082015250565b60006135cf601883612b8c565b91506135da82613599565b602082019050919050565b600060208201905081810360008301526135fe816135c2565b9050919050565b7f4552433732313a2061646472657373207a65726f206973206e6f74206120766160008201527f6c6964206f776e65720000000000000000000000000000000000000000000000602082015250565b6000613661602983612b8c565b915061366c82613605565b604082019050919050565b6000602082019050818103600083015261369081613654565b9050919050565b7f4e487b7100000000000000000000000000000000000000000000000000000000600052603260045260246000fd5b600081905092915050565b60006136dc82612b81565b6136e681856136c6565b93506136f6818560208601612b9d565b80840191505092915050565b600061370e82856136d1565b915061371a82846136d1565b91508190509392505050565b7f4f776e61626c653a206e6577206f776e657220697320746865207a65726f206160008201527f6464726573730000000000000000000000000000000000000000000000000000602082015250565b6000613782602683612b8c565b915061378d82613726565b604082019050919050565b600060208201905081810360008301526137b181613775565b9050919050565b60006137c382612c3c565b91506137ce83612c3c565b9250827fffffffffffffffffffffffffffffffffffffffffffffffffffffffffffffffff0382111561380357613802613444565b5b828201905092915050565b7f4552433732313a206d696e7420746f20746865207a65726f2061646472657373600082015250565b6000613844602083612b8c565b915061384f8261380e565b602082019050919050565b6000602082019050818103600083015261387381613837565b9050919050565b7f4552433732313a20746f6b656e20616c7265616479206d696e74656400000000600082015250565b60006138b0601c83612b8c565b91506138bb8261387a565b602082019050919050565b600060208201905081810360008301526138df816138a3565b9050919050565b6000610160820190506138fc6000830188612cd1565b6139096020830187612d67565b6139166040830186612d67565b6139236060830185612d67565b6139306080830184612dad565b9695505050505050565b7f4552433732313a207472616e736665722066726f6d20696e636f72726563742060008201527f6f776e6572000000000000000000000000000000000000000000000000000000602082015250565b6000613996602583612b8c565b91506139a18261393a565b604082019050919050565b600060208201905081810360008301526139c581613989565b9050919050565b7f4552433732313a207472616e7366657220746f20746865207a65726f2061646460008201527f7265737300000000000000000000000000000000000000000000000000000000602082015250565b6000613a28602483612b8c565b9150613a33826139cc565b604082019050919050565b60006020820190508181036000830152613a5781613a1b565b9050919050565b7f4f776e61626c653a2063616c6c6572206973206e6f7420746865206f776e6572600082015250565b6000613a94602083612b8c565b9150613a9f82613a5e565b602082019050919050565b60006020820190508181036000830152613ac381613a87565b9050919050565b7f4552433732313a20617070726f766520746f2063616c6c657200000000000000600082015250565b6000613b00601983612b8c565b9150613b0b82613aca565b602082019050919050565b60006020820190508181036000830152613b2f81613af3565b9050919050565b7f4552433732313a207472616e7366657220746f206e6f6e20455243373231526560008201527f63656976657220696d706c656d656e7465720000000000000000000000000000602082015250565b6000613b92603283612b8c565b9150613b9d82613b36565b604082019050919050565b60006020820190508181036000830152613bc181613b85565b9050919050565b6000613bd382612d91565b9150613bde83612d91565b92508160ff0483118215151615613bf857613bf7613444565b5b828202905092915050565b6000613c0e82612d91565b9150613c1983612d91565b92508260ff03821115613c2f57613c2e613444565b5b828201905092915050565b6000613c4582612d91565b9150613c5083612d91565b925082613c6057613c5f6134a7565b5b828206905092915050565b6000613c7682612d91565b9150613c8183612d91565b925082821015613c9457613c93613444565b5b828203905092915050565b600081519050919050565b600082825260208201905092915050565b6000613cc682613c9f565b613cd08185613caa565b9350613ce0818560208601612b9d565b613ce981612bd0565b840191505092915050565b6000608082019050613d096000830187612cd1565b613d166020830186612cd1565b613d236040830185612d67565b8181036060830152613d358184613cbb565b905095945050505050565b600081519050613d4f81612af2565b92915050565b600060208284031215613d6b57613d6a612abc565b5b6000613d7984828501613d40565b9150509291505056fea26469706673582212209dcccea83afddfd8ffbd56c5f2b62a57d3f1ef3ee09b10e07939008cf7bdd9e864736f6c634300080d0033",
  "immutableReferences": {},
  "source": "// SPDX-License-Identifier: GPL-3.0\r\n\r\npragma solidity ^0.8.2;\r\n\r\nimport \"@openzeppelin/contracts/token/ERC721/ERC721.sol\";\r\nimport \"@openzeppelin/contracts/access/Ownable.sol\";\r\n\r\ncontract TheFunixCryptoSim is ERC721, Ownable  {\r\n\r\n    // TASK #1: Define Name and Symbol of our Token\r\n    // - Symbol: FCS\r\n    // - Name: TheFunixCryptoSims\r\n    // HINTS:\r\n    // - Call [name] function and [symbol] function to check\r\n    //\r\n\t\r\n    // *** START Code here***\r\n    function nameOfToken() public pure returns(string memory) {\r\n        return \"TheFunixCryptoSims\";\r\n    }\r\n\r\n    function symbolOfToken() public pure returns(string memory) {\r\n        return \"FCS\";\r\n    }\r\n\r\n    constructor() ERC721(\"\", \"\") {\t\t\r\n        createGenesis();\r\n    }\r\n    \r\n    // *** END Code here***\r\n\r\n    // This struct will be used to represent the attributes of CryptoSim\r\n    struct SimAttributes {\r\n\t\t// 0 -> 3\r\n        uint8 body;\r\n\r\n        // 0 -> 7\r\n        uint8 eye;\r\n\r\n        // 0 -> 127\r\n        uint8 hairstyle;\r\n\r\n        // 0 -> 31\r\n        uint8 outfit;\r\n\r\n        // 0 -> 31\r\n        uint8 accessory;\r\n\r\n        // 0 -> 3\r\n        uint8 hiddenGenes;\r\n\r\n        // 0 - 255\r\n        uint8 generation;\r\n    }\r\n\r\n    // This struct will be used to represent one sim\r\n    struct Sim {\r\n        SimAttributes attributes;\r\n        uint256 matronId;\r\n        uint256 sireId;\r\n    }\r\n    \r\n    // List of existing sims. Use as CryptoSims' \"database\"\r\n    Sim[] public sims;\r\n    \r\n    // Event that will be emitted whenever a new sim is created\r\n    event Birth(\r\n        address owner,\r\n        uint256 id,\r\n        uint256 matronId,\r\n        uint256 sireId,\r\n        SimAttributes attributes\r\n    );\r\n\r\n    /** @dev Function to determine a sim's characteristics.\r\n      * @param matronId ID of sim's matron (one parent)\r\n      * @param sireId ID of sim's sire (other parent)\r\n      * @return The sim's attributes\r\n      */\r\n    function generateSimGenes(\r\n        uint256 matronId,\r\n        uint256 sireId\r\n    )\r\n        internal view /**bo sung view */\r\n        returns (SimAttributes memory)\r\n    {\r\n        SimAttributes memory matronAttr = sims[matronId].attributes;\r\n        SimAttributes memory sireAttr = sims[sireId].attributes;\r\n\r\n        // TASK #2: Define HiddenGenes X of new Sim\r\n        uint8 x = matronAttr.hiddenGenes;\r\n        // START Code here\r\n        if (matronAttr.hiddenGenes == sireAttr.hiddenGenes) {\r\n            x = (matronAttr.hiddenGenes * sireAttr.hiddenGenes + 3) % 4;\r\n        } else if (x < sireAttr.hiddenGenes) {\r\n            x = sireAttr.hiddenGenes;\r\n        }\r\n        // END Code here\r\n\r\n        \r\n        // Init new object to store new Sim's attributes \r\n        SimAttributes memory attributes = SimAttributes({\r\n          body: 0,\r\n          eye: 0,\r\n          hairstyle: 0,\r\n          outfit: 0,\r\n          accessory: 0,\r\n          hiddenGenes: 0,\r\n          generation: 0\r\n        });\r\n\r\n        // TASK #3: Calculate new Sim's generation\r\n        attributes.generation = matronAttr.generation + 1;\r\n        if (sireAttr.generation > matronAttr.generation) {\r\n            // START CODE HERE\r\n            attributes.generation = sireAttr.generation + 1;\r\n            // END CODE HERE\r\n        }\r\n\r\n        // TASK #4: Calculate remaining attributes\r\n        // START CODE HERE\r\n        if (x==0) {\r\n            attributes.body = (matronAttr.body + sireAttr.body + 3) % 4;\r\n            attributes.eye = sireAttr.eye;\r\n            attributes.hairstyle = matronAttr.hairstyle;\r\n            attributes.outfit = (matronAttr.outfit + sireAttr.outfit + 1) % 32;\r\n            attributes.accessory = (matronAttr.accessory + sireAttr.accessory) % 32;\r\n        } else if (x==1) {\r\n            attributes.body = (matronAttr.body + sireAttr.body + 3) % 4;\r\n            attributes.eye = matronAttr.eye;\r\n            attributes.hairstyle = (sireAttr.hairstyle - matronAttr.hairstyle + 128) % 128;\r\n            attributes.outfit = (matronAttr.outfit + sireAttr.outfit + 1) % 32;\r\n            attributes.accessory = (matronAttr.accessory + sireAttr.accessory) % 32;\r\n        } else if (x==2) {\r\n            attributes.body = (matronAttr.body + sireAttr.body + 3) % 4;\r\n            attributes.eye = (matronAttr.eye + sireAttr.eye) % 8;\r\n            attributes.hairstyle = (sireAttr.hairstyle - matronAttr.hairstyle + 128) % 128;\r\n            attributes.outfit = (matronAttr.outfit + sireAttr.outfit) % 32;\r\n            attributes.accessory = (matronAttr.accessory + sireAttr.accessory + 31) % 32;\r\n        } else if  (x==3) {\r\n            attributes.body = (matronAttr.body + sireAttr.body + 3) % 4;\r\n            attributes.eye = (matronAttr.eye + sireAttr.eye) % 8;\r\n            attributes.hairstyle = sireAttr.hairstyle;\r\n            attributes.outfit = (matronAttr.outfit + sireAttr.outfit) % 32;\r\n            attributes.accessory = (matronAttr.accessory + sireAttr.accessory + 31) % 32;\r\n        }\r\n            attributes.hiddenGenes = x;\r\n\r\n        // END CODE HERE\r\n\r\n\r\n\r\n        return attributes;\r\n    }\r\n\r\n\r\n    /** @dev Function to create a new sim\r\n      * @param matron ID of new sim's matron (one parent)\r\n      * @param sire ID of new sim's sire (other parent)\r\n      * @param owner Address of new sim's owner\r\n      * @return The new sim's ID\r\n      */\r\n    function createSim(\r\n        uint256 matron,\r\n        uint256 sire,\r\n        address owner\r\n    )\r\n        internal\r\n        returns (uint)\r\n    {\r\n        require(owner != address(0));\r\n\r\n        // Create new sim attributes based on matron and sire\r\n        SimAttributes memory newAtrributes = generateSimGenes(matron, sire);\r\n        \r\n        Sim memory newSim = Sim({\r\n            attributes: newAtrributes,\r\n            matronId: matron,\r\n            sireId: sire\r\n        });\r\n\r\n        // Add new Sim to array of sims\r\n        sims.push(newSim);\r\n        uint256 newSimId =  sims.length -  1;\r\n\r\n        // Create new NFT with ID is New Sim's ID, and owner is defined\r\n        super._mint(owner, newSimId);\r\n\r\n        // Emit Birth event\r\n        emit Birth(\r\n            owner,\r\n            newSimId,\r\n            newSim.matronId,\r\n            newSim.sireId,\r\n            newSim.attributes\r\n        );\r\n        return newSimId;\r\n    }\r\n\r\n\r\n    function createGenesis() internal {\r\n        SimAttributes memory firstAtrributes = SimAttributes({\r\n          body: 0,\r\n          eye: 0,\r\n          hairstyle: 0,\r\n          outfit: 0,\r\n          accessory: 0,\r\n          hiddenGenes: 0,\r\n          generation: 0\r\n        });\r\n\r\n        SimAttributes memory secondAtrributes = SimAttributes({\r\n          body: 3,\r\n          eye: 7,\r\n          hairstyle: 127,\r\n          outfit: 31,\r\n          accessory: 31,\r\n          hiddenGenes: 0,\r\n          generation: 0\r\n        });\r\n        \r\n        sims.push(Sim({\r\n            attributes: firstAtrributes,\r\n            matronId: 0,\r\n            sireId: 0\r\n        }));\r\n\r\n        super._mint(msg.sender, 0);\r\n\r\n        sims.push(Sim({\r\n            attributes: secondAtrributes,\r\n            matronId: 0,\r\n            sireId: 0\r\n        }));\r\n\r\n        super._mint(msg.sender, 1);\r\n    }\r\n\r\n  \r\n    /** @dev Function to allow user to buy a new sim (calls createSim())\r\n      * @return The new sim's ID\r\n      */\r\n    function buySim() external payable returns (uint256) {\r\n\t\t// READ MORE: In the real project, we will check whether 0.02 ether is sent. \r\n        // require(msg.value == 0.02 ether);\r\n        \r\n        return createSim(0, (sims.length - 1) % sims.length, msg.sender);\r\n    }\r\n    \r\n    /** @dev Function to breed 2 sims to create a new one\r\n      * @param matronId ID of new sim's matron (one parent)\r\n      * @param sireId ID of new sim's sire (other parent)\r\n      * @return The new sim's ID\r\n      */\r\n    function breedSim(uint256 matronId, uint256 sireId) external payable returns (uint256) {\r\n        // READ MORE: In the real project, we will check whether 0.02 ether is sent. \r\n        // require(msg.value == 0.05 ether);\r\n        return createSim(matronId, sireId, msg.sender);\r\n    }\r\n    \r\n    /** @dev Function to retrieve a specific sim's details.\r\n      * @param simId ID of the sim who's details will be retrieved\r\n      * @return An array, [sim's ID, sim's genes, matron's ID, sire's ID]\r\n      */\r\n    function getSimDetails(uint256 simId) external view returns (uint256, SimAttributes memory, uint256, uint256) {\r\n        Sim storage sim = sims[simId];\r\n        return (simId, sim.attributes, sim.matronId, sim.sireId);\r\n    }\r\n    \r\n    /** @dev Function to get a list of owned sims' IDs\r\n      * @return A uint array which contains IDs of all owned sims\r\n      */\r\n    function ownedSims() external view returns(uint256[] memory) {\r\n        uint256 simCount = balanceOf(msg.sender);\r\n        if (simCount == 0) {\r\n            return new uint256[](0);\r\n        } else {\r\n            uint256[] memory result = new uint256[](simCount);\r\n            uint256 totalSims = sims.length;\r\n            uint256 resultIndex = 0;\r\n            uint256 simId = 0;\r\n            while (simId < totalSims) {\r\n\r\n                if (ownerOf(simId) == msg.sender) {\r\n                    result[resultIndex] = simId;\r\n                    resultIndex = resultIndex + 1;\r\n                }\r\n\r\n                simId = simId + 1;\r\n            }\r\n            return result;\r\n        }\r\n    }\r\n}",
  "sourcePath": "D:\\job\\funix\\6-BDP303x_1.1-A_VN\\asm4\\practice\\contracts\\CryptoSims-basic.sol",
  "compiler": {
    "name": "solc",
    "version": "0.8.13+commit.abaa5c0e.Emscripten.clang"
  },
  "schemaVersion": "3.4.12",
  "updatedAt": "2023-03-06T13:01:25.412Z",
  "networkType": "ethereum",
  "devdoc": {
    "kind": "dev",
    "methods": {
      "approve(address,uint256)": {
        "details": "See {IERC721-approve}."
      },
      "balanceOf(address)": {
        "details": "See {IERC721-balanceOf}."
      },
      "breedSim(uint256,uint256)": {
        "details": "Function to breed 2 sims to create a new one",
        "params": {
          "matronId": "ID of new sim's matron (one parent)",
          "sireId": "ID of new sim's sire (other parent)"
        },
        "returns": {
          "_0": "The new sim's ID"
        }
      },
      "buySim()": {
        "details": "Function to allow user to buy a new sim (calls createSim())",
        "returns": {
          "_0": "The new sim's ID"
        }
      },
      "getApproved(uint256)": {
        "details": "See {IERC721-getApproved}."
      },
      "getSimDetails(uint256)": {
        "details": "Function to retrieve a specific sim's details.",
        "params": {
          "simId": "ID of the sim who's details will be retrieved"
        },
        "returns": {
          "_0": "An array, [sim's ID, sim's genes, matron's ID, sire's ID]"
        }
      },
      "isApprovedForAll(address,address)": {
        "details": "See {IERC721-isApprovedForAll}."
      },
      "name()": {
        "details": "See {IERC721Metadata-name}."
      },
      "ownedSims()": {
        "details": "Function to get a list of owned sims' IDs",
        "returns": {
          "_0": "A uint array which contains IDs of all owned sims"
        }
      },
      "owner()": {
        "details": "Returns the address of the current owner."
      },
      "ownerOf(uint256)": {
        "details": "See {IERC721-ownerOf}."
      },
      "renounceOwnership()": {
        "details": "Leaves the contract without owner. It will not be possible to call `onlyOwner` functions anymore. Can only be called by the current owner. NOTE: Renouncing ownership will leave the contract without an owner, thereby removing any functionality that is only available to the owner."
      },
      "safeTransferFrom(address,address,uint256)": {
        "details": "See {IERC721-safeTransferFrom}."
      },
      "safeTransferFrom(address,address,uint256,bytes)": {
        "details": "See {IERC721-safeTransferFrom}."
      },
      "setApprovalForAll(address,bool)": {
        "details": "See {IERC721-setApprovalForAll}."
      },
      "supportsInterface(bytes4)": {
        "details": "See {IERC165-supportsInterface}."
      },
      "symbol()": {
        "details": "See {IERC721Metadata-symbol}."
      },
      "tokenURI(uint256)": {
        "details": "See {IERC721Metadata-tokenURI}."
      },
      "transferFrom(address,address,uint256)": {
        "details": "See {IERC721-transferFrom}."
      },
      "transferOwnership(address)": {
        "details": "Transfers ownership of the contract to a new account (`newOwner`). Can only be called by the current owner."
      }
    },
    "version": 1
  },
  "userdoc": {
    "kind": "user",
    "methods": {},
    "version": 1
  }
}